{
  "_format": "hh-sol-artifact-1",
  "contractName": "WavePortal",
  "sourceName": "contracts/WavePortal.sol",
  "abi": [
    {
      "inputs": [],
      "stateMutability": "nonpayable",
      "type": "constructor"
    },
    {
      "anonymous": false,
      "inputs": [
        {
          "indexed": true,
          "internalType": "address",
          "name": "from",
          "type": "address"
        },
        {
          "indexed": false,
          "internalType": "uint256",
          "name": "timestamp",
          "type": "uint256"
        },
        {
          "indexed": false,
          "internalType": "string",
          "name": "message",
          "type": "string"
        }
      ],
      "name": "NewWave",
      "type": "event"
    },
    {
      "inputs": [],
      "name": "getAllWaves",
      "outputs": [
        {
          "components": [
            {
              "internalType": "address",
              "name": "waver",
              "type": "address"
            },
            {
              "internalType": "string",
              "name": "message",
              "type": "string"
            },
            {
              "internalType": "uint256",
              "name": "timestamp",
              "type": "uint256"
            }
          ],
          "internalType": "struct WavePortal.Wave[]",
          "name": "",
          "type": "tuple[]"
        }
      ],
      "stateMutability": "view",
      "type": "function"
    },
    {
      "inputs": [],
      "name": "getTotalWaves",
      "outputs": [
        {
          "internalType": "uint256",
          "name": "",
          "type": "uint256"
        }
      ],
      "stateMutability": "view",
      "type": "function"
    },
    {
      "inputs": [
        {
          "internalType": "string",
          "name": "_message",
          "type": "string"
        }
      ],
      "name": "wave",
      "outputs": [],
      "stateMutability": "nonpayable",
      "type": "function"
    }
  ],
  "bytecode": "0x60806040523480156200001157600080fd5b506200005d6040518060400160405280601e81526020017f546869732069732061207761766520706f7274616c20636f6e747261637400008152506200006360201b620003aa1760201c565b620001ed565b62000103816040516024016200007a9190620001c9565b6040516020818303038152906040527f41304fac000000000000000000000000000000000000000000000000000000007bffffffffffffffffffffffffffffffffffffffffffffffffffffffff19166020820180517bffffffffffffffffffffffffffffffffffffffffffffffffffffffff83818316178352505050506200010660201b60201c565b50565b60008151905060006a636f6e736f6c652e6c6f679050602083016000808483855afa5050505050565b600081519050919050565b600082825260208201905092915050565b60005b838110156200016b5780820151818401526020810190506200014e565b60008484015250505050565b6000601f19601f8301169050919050565b600062000195826200012f565b620001a181856200013a565b9350620001b38185602086016200014b565b620001be8162000177565b840191505092915050565b60006020820190508181036000830152620001e5818462000188565b905092915050565b610e0080620001fd6000396000f3fe608060405234801561001057600080fd5b50600436106100415760003560e01c8063449d46c0146100465780639a2cdc0814610062578063bd43a90814610080575b600080fd5b610060600480360381019061005b91906106fe565b61009e565b005b61006a61020e565b6040516100779190610760565b60405180910390f35b610088610259565b604051610095919061095c565b60405180910390f35b60016000808282546100b091906109ad565b925050819055506100f66040518060400160405280600c81526020017f257320686173207761766564000000000000000000000000000000000000000081525033610443565b600160405180606001604052803373ffffffffffffffffffffffffffffffffffffffff16815260200183815260200142815250908060018154018082558091505060019003906000526020600020906003020160009091909190915060008201518160000160006101000a81548173ffffffffffffffffffffffffffffffffffffffff021916908373ffffffffffffffffffffffffffffffffffffffff16021790555060208201518160010190816101ae9190610bed565b506040820151816002015550503373ffffffffffffffffffffffffffffffffffffffff167f5f7e16dc676677766a70e9c5628aa6c54ddb8b6e5188e2ae1e1f17f1ffbea7164283604051610203929190610d09565b60405180910390a250565b60006102516040518060400160405280601381526020017f57652068617665202564207761766573212121000000000000000000000000008152506000546104df565b600054905090565b60606001805480602002602001604051908101604052809291908181526020016000905b828210156103a157838290600052602060002090600302016040518060600160405290816000820160009054906101000a900473ffffffffffffffffffffffffffffffffffffffff1673ffffffffffffffffffffffffffffffffffffffff1673ffffffffffffffffffffffffffffffffffffffff16815260200160018201805461030690610a10565b80601f016020809104026020016040519081016040528092919081815260200182805461033290610a10565b801561037f5780601f106103545761010080835404028352916020019161037f565b820191906000526020600020905b81548152906001019060200180831161036257829003601f168201915b505050505081526020016002820154815250508152602001906001019061027d565b50505050905090565b610440816040516024016103be9190610d39565b6040516020818303038152906040527f41304fac000000000000000000000000000000000000000000000000000000007bffffffffffffffffffffffffffffffffffffffffffffffffffffffff19166020820180517bffffffffffffffffffffffffffffffffffffffffffffffffffffffff838183161783525050505061057b565b50565b6104db8282604051602401610459929190610d6a565b6040516020818303038152906040527f319af333000000000000000000000000000000000000000000000000000000007bffffffffffffffffffffffffffffffffffffffffffffffffffffffff19166020820180517bffffffffffffffffffffffffffffffffffffffffffffffffffffffff838183161783525050505061057b565b5050565b61057782826040516024016104f5929190610d9a565b6040516020818303038152906040527fb60e72cc000000000000000000000000000000000000000000000000000000007bffffffffffffffffffffffffffffffffffffffffffffffffffffffff19166020820180517bffffffffffffffffffffffffffffffffffffffffffffffffffffffff838183161783525050505061057b565b5050565b60008151905060006a636f6e736f6c652e6c6f679050602083016000808483855afa5050505050565b6000604051905090565b600080fd5b600080fd5b600080fd5b600080fd5b6000601f19601f8301169050919050565b7f4e487b7100000000000000000000000000000000000000000000000000000000600052604160045260246000fd5b61060b826105c2565b810181811067ffffffffffffffff8211171561062a576106296105d3565b5b80604052505050565b600061063d6105a4565b90506106498282610602565b919050565b600067ffffffffffffffff821115610669576106686105d3565b5b610672826105c2565b9050602081019050919050565b82818337600083830152505050565b60006106a161069c8461064e565b610633565b9050828152602081018484840111156106bd576106bc6105bd565b5b6106c884828561067f565b509392505050565b600082601f8301126106e5576106e46105b8565b5b81356106f584826020860161068e565b91505092915050565b600060208284031215610714576107136105ae565b5b600082013567ffffffffffffffff811115610732576107316105b3565b5b61073e848285016106d0565b91505092915050565b6000819050919050565b61075a81610747565b82525050565b60006020820190506107756000830184610751565b92915050565b600081519050919050565b600082825260208201905092915050565b6000819050602082019050919050565b600073ffffffffffffffffffffffffffffffffffffffff82169050919050565b60006107d2826107a7565b9050919050565b6107e2816107c7565b82525050565b600081519050919050565b600082825260208201905092915050565b60005b83811015610822578082015181840152602081019050610807565b60008484015250505050565b6000610839826107e8565b61084381856107f3565b9350610853818560208601610804565b61085c816105c2565b840191505092915050565b61087081610747565b82525050565b600060608301600083015161088e60008601826107d9565b50602083015184820360208601526108a6828261082e565b91505060408301516108bb6040860182610867565b508091505092915050565b60006108d28383610876565b905092915050565b6000602082019050919050565b60006108f28261077b565b6108fc8185610786565b93508360208202850161090e85610797565b8060005b8581101561094a578484038952815161092b85826108c6565b9450610936836108da565b925060208a01995050600181019050610912565b50829750879550505050505092915050565b6000602082019050818103600083015261097681846108e7565b905092915050565b7f4e487b7100000000000000000000000000000000000000000000000000000000600052601160045260246000fd5b60006109b882610747565b91506109c383610747565b92508282019050808211156109db576109da61097e565b5b92915050565b7f4e487b7100000000000000000000000000000000000000000000000000000000600052602260045260246000fd5b60006002820490506001821680610a2857607f821691505b602082108103610a3b57610a3a6109e1565b5b50919050565b60008190508160005260206000209050919050565b60006020601f8301049050919050565b600082821b905092915050565b600060088302610aa37fffffffffffffffffffffffffffffffffffffffffffffffffffffffffffffffff82610a66565b610aad8683610a66565b95508019841693508086168417925050509392505050565b6000819050919050565b6000610aea610ae5610ae084610747565b610ac5565b610747565b9050919050565b6000819050919050565b610b0483610acf565b610b18610b1082610af1565b848454610a73565b825550505050565b600090565b610b2d610b20565b610b38818484610afb565b505050565b5b81811015610b5c57610b51600082610b25565b600181019050610b3e565b5050565b601f821115610ba157610b7281610a41565b610b7b84610a56565b81016020851015610b8a578190505b610b9e610b9685610a56565b830182610b3d565b50505b505050565b600082821c905092915050565b6000610bc460001984600802610ba6565b1980831691505092915050565b6000610bdd8383610bb3565b9150826002028217905092915050565b610bf6826107e8565b67ffffffffffffffff811115610c0f57610c0e6105d3565b5b610c198254610a10565b610c24828285610b60565b600060209050601f831160018114610c575760008415610c45578287015190505b610c4f8582610bd1565b865550610cb7565b601f198416610c6586610a41565b60005b82811015610c8d57848901518255600182019150602085019450602081019050610c68565b86831015610caa5784890151610ca6601f891682610bb3565b8355505b6001600288020188555050505b505050505050565b600082825260208201905092915050565b6000610cdb826107e8565b610ce58185610cbf565b9350610cf5818560208601610804565b610cfe816105c2565b840191505092915050565b6000604082019050610d1e6000830185610751565b8181036020830152610d308184610cd0565b90509392505050565b60006020820190508181036000830152610d538184610cd0565b905092915050565b610d64816107c7565b82525050565b60006040820190508181036000830152610d848185610cd0565b9050610d936020830184610d5b565b9392505050565b60006040820190508181036000830152610db48185610cd0565b9050610dc36020830184610751565b939250505056fea26469706673582212202cfbb6b9178c86268e33a66763d1c252e823152260314cbe79fc189f6746375764736f6c63430008110033",
  "linkReferences": {},
  "deployedLinkReferences": {}
}